:020000040800F2
:10000000005000207D050008CD050008CD05000842
:10001000CD050008CD050008CD0500080000000052
:10002000000000000000000000000000CD050008F6
:10003000CD05000800000000CD050008CD05000832
:10004000CD050008CD050008CD050008CD05000848
:10005000CD050008CD050008CD050008CD05000838
:10006000CD050008CD050008CD050008CD05000828
:10007000CD050008CD050008CD050008CD05000818
:10008000CD050008CD050008CD050008CD05000808
:10009000CD050008CD050008CD050008CD050008F8
:1000A000CD050008CD050008CD050008CD050008E8
:1000B000CD050008CD050008CD050008CD050008D8
:1000C000CD050008CD050008CD050008CD050008C8
:1000D000CD050008CD050008CD050008CD050008B8
:1000E000CD050008CD05000800000000CD05000882
:1000F000CD050008CD050008CD050008CD05000898
:10010000CD050008CD050008CD050008CD05000887
:10011000CD050008CD050008CD050008CD05000877
:10012000CD050008CD050008CD050008CD05000867
:1001300010B5054C237833B9044B13B10448AFF321
:1001400000800123237010BD640000200000000027
:100150008014000808B5034B1BB103490348AFF3F3
:10016000008008BD00000000680000208014000826
:1001700090B484B000AF0446084611461A462346A0
:10018000FB710346BB710B467B7113463B713B7998
:100190009B00DAB27B791344FB73BB79072B41D800
:1001A000FB79012B17D0022B28D0002B00D086E042
:1001B000454B1B68BA7992000F2101FA02F2D24333
:1001C0001340F97BBA79920001FA02F211463E4AD5
:1001D0000B44136073E03D4B1B68BA7992000F210A
:1001E00001FA02F2D2431340F97BBA79920001FA84
:1001F00002F21146354A0B44136060E0344B1B6831
:10020000BA7992000F2101FA02F2D2431340F97B2E
:10021000BA79920001FA02F211462D4A0B4413609A
:1002200000BF4CE0BB79072B49D9BB790F2B46D8CF
:10023000FB79012B19D0022B2CD0002B00D03EE0F3
:10024000214B5B68BA79083A92000F2101FA02F259
:10025000D2431340F97BBA79083A920001FA02F2CC
:100260001146194A0B44536029E0184B5B68BA7970
:10027000083A92000F2101FA02F2D2431340F97BAF
:10028000BA79083A920001FA02F211460F4A0B4479
:10029000536014E00E4B5B68BA79083A92000F2164
:1002A00001FA02F2D2431340F97BBA79083A92007C
:1002B00001FA02F21146064A0B44536000BF00BF28
:1002C0001037BD4690BC704700080140000C01404B
:1002D0000010014080B483B000AF0346FB710B46B1
:1002E000BB7113467B71BB790F2B3AD87B79012BFD
:1002F0001AD1FB79012B0AD0022B0ED0002B00D093
:100300002FE0BB7901229A40184B1A6129E0BB7992
:1003100001229A40164B1A6123E0BB7901229A40D0
:10032000144B1A6100BF1CE07B79002B19D1FB79BB
:10033000012B0AD0022B0ED0002B00D011E0BB798C
:1003400001229A40094B5A610BE0BB7901229A4085
:10035000074B5A6105E0BB7901229A40054B5A616F
:1003600000BF00BF0C37BD4680BC7047000801408D
:10037000000C01400010014080B483B000AF034680
:100380000A46FB711346BB80FB79012B14D0022B6C
:1003900022D0002B00D02FE0BB8803F58032194B10
:1003A0009A61184ABB889361BB8803F58032154B6C
:1003B0009A61144B9B691FE0BB8803F58032124B96
:1003C0009A61114ABB889361BB8803F580320E4B5A
:1003D0009A610D4B9B690FE0BB8803F580320B4B94
:1003E0009A610A4ABB889361BB8803F58032074B48
:1003F0009A61064B9B6900BF00BF0C37BD4680BCAD
:10040000704700BF00080140000C0140001001408F
:1004100080B483B000AF0346FB710B46BB7113463B
:100420007B71FB79042B10D11E4B5B69BA790121DA
:1004300001FA02F2D24313407979BA7901FA02F251
:100440001146184A0B43536126E0FB79082B10D163
:10045000144BDB69BA79012101FA02F2D24313404D
:100460007979BA7901FA02F211460E4A0B43D36147
:1004700012E0FB790B2B0FD10A4B9B69BA79012152
:1004800001FA02F2D24313407979BA7901FA02F201
:100490001146044A0B43936100BF0C37BD4680BC34
:1004A000704700BF0010024080B582B000AF01224B
:1004B00004210B20FFF7ACFF012202210B20FFF7E4
:1004C000A7FF002301220D210220FFF751FE002388
:1004D000012201210020FFF74BFE0023012202210F
:1004E0000020FFF745FE06210020FFF745FF00230F
:1004F000012201210020FFF73BFE01220D210220F5
:10050000FFF7E8FE012201210020FFF7E3FE0122B0
:1005100002210020FFF7DEFE164800F085F80023D8
:100520007B6002E07B6801337B607B684CF24F327A
:100530009342F7DD00220D210220FFF7CBFE0022BF
:1005400001210020FFF7C6FE002202210020FFF754
:10055000C1FE00233B6002E03B6801333B603B6827
:100560004CF24F329342F7DD034B1B680133024AD2
:100570001360C2E7981400088C0000200D488546DF
:10058000AFF300800C480D490D4A002302E0D45817
:10059000C4500433C4188C42F9D30A4A0A4C0023CD
:1005A00001E013600432A242FBD300F011F8FFF720
:1005B0007BFFFEE7005000200000002064000020C8
:1005C000441500086400002094000020FEE70000AD
:1005D00070B500250C4E0D4CA41BA410A54209D1EA
:1005E00000F04EFF00250A4E0A4CA41BA410A542A1
:1005F00005D170BD56F8253098470135EEE756F81D
:10060000253098470135F2E73C1500083C150008F5
:100610003C1500084015000803460244934200D1EF
:10062000704703F8011BF9E70FB40A4B13B51C68B8
:1006300024B1A36913B9204600F04EF805AB049A23
:10064000A1682046019300F053F902B0BDE81040C4
:1006500004B0704700000020002310B50446C0E934
:100660000033836081814366C281C0E904338361C2
:10067000194608225C30FFF7CFFF054B2462636206
:10068000044BA362044BE362044B236310BD00BF21
:100690004D0E00086F0E0008A70E0008CB0E0008D4
:1006A000014900F085B800BFA511000870B56825A4
:1006B0004A1E55430E4605F1740100F097F80446B2
:1006C00040B10021C0E900160C30A06005F16802BD
:1006D000FFF7A2FF204670BD836910B5044633BB07
:1006E000C0E912330365124B124A1B6882629842BA
:1006F00004BF0123836100F01FF86060204600F012
:100700001BF8A060204600F017F80022E0600421EA
:100710006068FFF7A1FF01220921A068FFF79CFF95
:1007200002221221E068FFF797FF0123A36110BDA9
:10073000A4140008A1060008F8B51B4B07461E6864
:10074000B36913B93046FFF7C7FF4836D6E901341D
:10075000013B03D5336833B13668F7E7B4F90C5081
:100760006DB16834F4E704213846FFF79FFF30602D
:100770000028F1D10C2304463B602046F8BD0B4B0A
:100780006566C4E90055A560C4E90335C4E90555AB
:100790000822294604F15C00FFF73EFFC4E90D552D
:1007A000C4E91255E9E700BFA41400080100FFFFE7
:1007B0002DE9F84380468946002600F1480414B923
:1007C0003046BDE8F883D4E90175013F01D52468BE
:1007D000F5E7AB89012B07D9B5F90E30013303D00A
:1007E00029464046C84706436835EEE770B5CD1C3C
:1007F00025F0030508350C2D38BF0C25002D0646C5
:1008000001DBA94203D90C233360002070BD00F046
:1008100077FD214A1468214691B9204C23681BB901
:10082000304600F003FB20602946304600F0FEFA17
:10083000431C24D10C233046336000F062FDE4E712
:100840000B685B1B18D40B2B0FD90B60CC18CD5049
:10085000304600F056FD04F10B00231D20F0070088
:10086000C31AD3D05A42E250D0E74B688C4216BF2D
:10087000636013600C46EBE70C464968CCE7C41C88
:1008800024F00304A04205D0211A304600F0CEFA2D
:100890000130CFD02560DBE78000002084000020FD
:1008A000936810B4013B002B936007DA9469A3426C
:1008B00001DB0A2902D110BC00F00CBB1368581CE4
:1008C00010601970084610BC7047F8B506460F4610
:1008D0001446D518AC4201D1002007E03A4614F87E
:1008E000011B3046FFF7DCFF431CF3D1F8BD0000CD
:1008F0002DE9F04F0C469DB017461D46064618B12F
:1009000083690BB9FFF7E8FE7C4B9C4258D17468B1
:10091000A38918075ED52369002B5BD000230993B8
:1009200020238DF8293030234FF0010B8DF82A3029
:100930000395B846454615F8013B0BB1252B54D11C
:10094000B8EB070A0BD053463A4621463046FFF72C
:10095000BCFF013000F0C280099B5344099398F812
:100960000030002B00F0BA8000234FF0FF32CDE9B9
:100970000523049307938DF853301A93A846052254
:1009800018F8011B5E4800F0ADFC049B78BBD9064B
:1009900044BF20228DF853201A0744BF2B228DF824
:1009A00053202A782A2A2AD0A84600200A25079A06
:1009B000414611F8013B303B092B69D960B324E073
:1009C000504B9C4201D1B468A2E74F4B9C4208BFF8
:1009D000F4689DE72146304600F0E0FA00289DD0FB
:1009E0004FF0FF301DB0BDE8F08FA846A2E7444AA3
:1009F0004546801A0BFA00F018430490BEE7039AAC
:100A0000111D12680391002A01DB079204E0524293
:100A100043F002030792049398F800302E2B0ED176
:100A200098F801302A2B38D1039B08F102081A1DCF
:100A30001B680392002BB8BF4FF0FF330593334D73
:100A4000032298F80010284600F04CFC40B14023E7
:100A5000401B03FA00F0049B08F1010803430493D0
:100A600098F8001006222A4808F101078DF828108E
:100A700000F038FC002837D0264B1BBB039B073304
:100A800023F0070308330393099B4B44099350E772
:100A900005FB0232012088468AE700230A25194611
:100AA00008F101080593404610F8012B303A092A55
:100AB00003D9002BC3D00591C1E705FB0121012318
:100AC0008046F0E703AB00932246134B04A930465F
:100AD000AFF30080B0F1FF3F8146D5D1A3895B061B
:100AE0003FF57EAF09987DE703AB009322460A4BA2
:100AF00004A9304600F088F8ECE700BFC8140008ED
:100B000008150008E8140008A81400080E150008CD
:100B10001215000800000000CB0800082DE9F0477E
:100B200091461F468A680B6906469342B8BF134632
:100B3000C9F8003091F843200C46DDF8208012B14E
:100B40000133C9F800302368990642BFD9F8003054
:100B50000233C9F80030256815F0060507D104F105
:100B6000190AE368D9F800209B1AAB4229DC94F8F3
:100B700043302268003318BF012392062ED404F1BB
:100B8000430239463046C047013021D02368E5682A
:100B900003F00603042B18BF0025D9F800204FF0FE
:100BA000000908BFAD1AA368226908BF25EAE575E8
:100BB0009342C4BF9B1AED181A344D451AD1002038
:100BC00008E00123524639463046C047013003D180
:100BD0004FF0FF30BDE8F0870135C2E73020E11863
:100BE00081F843005A1C94F845102244023382F8DD
:100BF0004310C4E70123224639463046C04701303E
:100C0000E6D009F10109D8E72DE9F04301F1430CE1
:100C10000C46097E85B06E291746064698460C9A02
:100C200000F0B38022D8632936D00AD8002900F01A
:100C3000B980582900F0838004F1420584F84210FD
:100C400032E0642901D06929F6D1206813680506CD
:100C500003F104012AD51B681160002B03DA2D2251
:100C60005B4284F843206F480A2239E0732900F080
:100C70009D8008D86F2920D07029DDD1236843F0EA
:100C80002003236003E0752917D07829D4D1782375
:100C9000654884F8453055E0136804F14205191D94
:100CA0001B68116084F8423001238CE01B6810F04F
:100CB000400F116018BF1BB2CFE713682568181DDD
:100CC0001060280601D51B6802E06806FBD51B886A
:100CD0006F2914BF0A2208225248002184F84310C9
:100CE0006568002DA560C0F29580216821F004019F
:100CF0002160002B3DD1002D40F08E806546082AF2
:100D00000BD12368DB0708D5236962689A42DEBFEE
:100D1000302305F8013C05F1FF35ACEB05032361F9
:100D2000CDF800803B4603AA21463046FFF7F6FE89
:100D300001304DD14FF0FF3005B0BDE8F0833948A8
:100D400084F84510136821681D1D1B6815600A068C
:100D50000BD5CA0744BF41F0200121601BB92268AE
:100D600022F0200222601022B7E74D0648BF9BB256
:100D7000EFE76546B3FBF2F102FB1133C35C05F804
:100D8000013D0B460029F5D1B9E713682568181D08
:100D90006169106028061B6801D5196002E06A06C7
:100DA000FBD51980002365462361B9E71368191D37
:100DB00011601D6862680021284600F093FA08B1AE
:100DC000401B606063682361002384F84330A7E719
:100DD00023692A4639463046C0470130AAD02368E5
:100DE0009B0713D4E068039B9842B8BF1846A3E75B
:100DF00001234A4639463046C04701309AD0013572
:100E0000E368039A9B1AAB42F2DCEBE7002504F19E
:100E10001909F5E7002BACD1037804F1420584F8F9
:100E200042306CE7191500082A15000838B5002370
:100E3000054C05460846236000F00CFB431C02D11C
:100E4000236803B12B6038BD9000002010B50C461C
:100E5000B1F90E1000F0A2FA0028ABBF636DA389B0
:100E60001B1823F48053ACBF6365A38110BD2DE92B
:100E7000F0411F468B890546DB050C46164605D515
:100E800002230022B1F90E1000F0B6F9A389324610
:100E900023F48053A381B4F90E103B462846BDE8E5
:100EA000F04100F069B810B50C46B1F90E1000F031
:100EB000A3F9431CA38915BF606523F4805343F451
:100EC0008053A38118BFA38110BDB1F90E1000F0AB
:100ED000D3B80000F8B50E461446054618B183692C
:100EE0000BB9FFF7F9FB214B9C422AD16C68A3692F
:100EF000A360A3891A072ED5236963B323692068E9
:100F0000F6B2C01A63693746834204DC214628469C
:100F100000F048F928BBA3680130013BA3602368B7
:100F20005A1C22601E706369834204D0A389DB07C8
:100F300019D50A2E17D12146284600F033F990B171
:100F40000FE00B4B9C4201D1AC68D0E7094B9C42AF
:100F500008BFEC68CBE72146284600F01FF80028C0
:100F6000CCD04FF0FF373846F8BD00BFC81400089A
:100F7000E8140008A814000838B5054608461146CC
:100F80000022054C22601A4600F072FA431C02D17E
:100F9000236803B12B6038BD90000020324B70B540
:100FA0001D6806460C4625B1AB6913B92846FFF704
:100FB00093FB2E4B9C420FD16C68B4F90C309AB263
:100FC00015072CD4D00611D40922326043F0400317
:100FD000A3814FF0FF303EE0254B9C4201D1AC682D
:100FE000EBE7244B9C4208BFEC68E6E7510712D5BB
:100FF000616B41B104F14403994202D0304600F0E4
:1010000081F900236363A38923F02403A3810023D0
:10101000636023692360A38943F00803A3812369E4
:101020004BB9A38903F42073B3F5007F03D02146A5
:10103000304600F017F9A28912F001030CD000230A
:10104000A36063695B42A361236953B9B4F90C30AF
:1010500013F08000BAD170BD920758BF6369A360D6
:10106000F2E70020F7E700BF00000020C8140008E6
:10107000E8140008A814000838B50023054C0546FC
:101080000846236000F0BEF9431C02D1236803B177
:101090002B6038BD900000208A892DE9F04105467B
:1010A00010070C4658D44B68002B05DC0B6C002B4A
:1010B00002DC0020BDE8F081E66A002EF9D00023B2
:1010C00012F480522F68216A2B6032D0606DA389A0
:1010D0005A0705D56368C01A636B0BB1236CC01A3D
:1010E00000230246E66A216A2846B047431CA389CA
:1010F00006D129681D2948D8294ACA40D60744D5AF
:10110000002262602269D904226004D5421C01D108
:101110002B6803B96065616B2F600029C9D004F1A9
:101120004403994202D0284600F0ECF800206063A6
:10113000C0E701232846B047411CC8D12B68002BCB
:10114000C5D01D2B01D0162B01D12F60B1E7A3898B
:1011500043F04003A381ADE70F69002FA9D09307A7
:1011600018BF00230E6808BF4B69A6EB07080F6085
:101170008B60B8F1000F9CDD43463A46216A284651
:10118000A66AB047002806DCA38943F04003A38188
:101190004FF0FF308EE70744A8EB0008E9E700BFF7
:1011A0000100402038B50B6905460C46DBB118B18B
:1011B00083690BB9FFF790FA0C4B9C4209D16C681C
:1011C000B4F90C307BB121462846BDE83840FFF722
:1011D00063BF074B9C4201D1AC68F1E7054B9C42D1
:1011E00008BFEC68ECE7002038BD00BFC814000859
:1011F000E8140008A814000838B50546084611464A
:101200000022054C22601A4600F014F9431C02D15A
:10121000236803B12B6038BD9000002070B50E46E6
:10122000B1F90E1096B0002914461D4607DA0023C6
:101230002B60B3891A0610D44FF480630EE06A461F
:1012400000F0BEF80028F2DB019A02F47042A2F529
:1012500000535A425A412A60EEE74023002023609F
:1012600016B070BD8B8973B59D0706460C4607D531
:1012700004F14703236023610123636102B070BD61
:1012800001AB6A46FFF7CAFF009905463046FFF7F3
:10129000ADFA48B9B4F90C309A05EFD423F0030342
:1012A00043F00203A381E3E70D4BB362A3892060FF
:1012B00043F08003A381009B20616361019B5BB1CC
:1012C000B4F90E10304600F08DF828B1A38923F050
:1012D000030343F00103A381A3891D43A581CDE747
:1012E000A106000810B5C9B202449042034601D1DC
:1012F000002303E01C7801308C42F6D1184610BD63
:101300007047704738B50546002943D051F8043C72
:101310000C1F002BB8BFE418FFF7F2FF1E4A13683A
:10132000104633B9636014602846BDE83840FFF7C3
:10133000E8BFA3420BD921686218934201BF1A6823
:101340005B685218226063600460EDE713465A68D8
:101350000AB1A242FAD919685818A0420BD12068E4
:101360000144581882421960DED110685268014465
:1013700019605A60D8E702D90C232B60D4E72068A3
:1013800021188A4201BF1168526809182160626001
:101390005C60C9E738BD00BF8000002038B5054655
:1013A000084611460022054C22601A4600F04AF811
:1013B000431C02D1236803B12B6038BD900000208C
:1013C00038B50023064C054608461146236000F058
:1013D00021F8431C02D1236803B12B6038BD00BF44
:1013E0009000002038B50023054C054608462360D0
:1013F00000F018F8431C02D1236803B12B6038BDFC
:10140000900000205822024B4FF0FF301A607047C6
:10141000900000205822024B4FF0FF301A607047B6
:10142000900000205822024B00201A60704700BF35
:10143000900000205822024B4FF0FF301A60704796
:10144000900000205822024B4FF0FF301A60704786
:1014500090000020044B0246196809B9034919603D
:10146000186802441A607047880000209800002025
:101470005822024B4FF0FF301A6070479000002056
:10148000F8B500BFF8BC08BC9E467047F8B500BF71
:08149000F8BC08BC9E46704741
:1014980068656C6C6F20776F726C640004000020C4
:1014A8000000000000000000000000000000000034
:1014B8000000000000000000000000000000000024
:1014C8000000000000000000000000000000000014
:1014D8000000000000000000000000000000000004
:1014E80000000000000000000000000000000000F4
:1014F80000000000000000000000000000000000E4
:10150800232D302B2000686C4C00656667454647E4
:101518000030313233343536373839414243444567
:1015280046003031323334353637383961626364D6
:0415380065660000E4
:04153C00550100084D
:04154000310100086D
:101544000400002000000000C8140008E81400088B
:10155400A8140008000000000000000000000000C3
:101564000000000000000000000000000000000077
:101574000000000000000000000000000000000067
:101584000000000000000000000000000000000057
:101594000000000000000000000000000000000047
:0415A4000000000043
:040000050800057D6D
:00000001FF
